:020000040800F2
:1000000068060020A1010008A9010008AB01000852
:10001000AD010008AF010008B101000800000000B8
:10002000000000000000000000000000B301000814
:10003000B501000800000000B7010008B901000880
:10004000BB010008BB010008BB010008BB010008A0
:10005000BB010008BB010008BB010008BB01000890
:10006000BB010008BB010008BB010008BB01000880
:10007000BB010008BB010008BB010008BB01000870
:10008000BB010008BB010008BB0100080000000024
:100090000000000000000000000000005D020008F9
:1000A000BB010008BB010008BB010008BB01000840
:1000B000BB010008BB010008BB010008BB01000830
:1000C000BB010008BB010008BB010008BB01000820
:1000D000BB010008BB010008BB010008BB01000810
:1000E000BB010008BB010008BB01000800000000C4
:1000F0000000000000000000000000000000000000
:1001000000000000000000000000000000000000EF
:100110000000000000000000BB010008BB01000857
:1001200000F002F800F02CF80AA090E8000C8244DD
:100130008344AAF10107DA4501D100F021F8AFF2BA
:10014000090EBAE80F0013F0010F18BFFB1A43F0B5
:10015000010318475804000068040000002300242D
:1001600000250026103A28BF78C1FBD8520728BFC7
:1001700030C148BF0B6070471FB51FBD10B510BD23
:1001800000F031F81146FFF7F7FF00F0FDF900F03D
:100190004FF803B4FFF7F2FF03BC00F057F800007C
:1001A0000948804709480047FEE7FEE7FEE7FEE70B
:1001B000FEE7FEE7FEE7FEE7FEE7FEE70448054947
:1001C000054A064B70470000B504000821010008ED
:1001D00068000020680600206802002068020020F5
:1001E000704770477047754600F02CF8AE46050022
:1001F0006946534620F00700854618B020B5FFF742
:10020000DDFFBDE820404FF000064FF000074FF043
:1002100000084FF0000BAC46ACE8C009ACE8C009E0
:10022000ACE8C009ACE8C00921F007018D46704771
:1002300010B50446AFF300802046BDE81040FFF73C
:10024000A8BF0000004870470000002001491820A6
:10025000ABBEFEE7260002007047000080B54020DC
:1002600000F012F830B140F26000C2F200000188E4
:1002700001310180402000F001F880BD40F21441BE
:10028000C4F201010860704740F20041C4F201016C
:100290000A6849690240084018BF0120002A18BFB7
:1002A00001221040704700008179002940F200418E
:1002B000C4F201011FD002680B6893430B604B68C6
:1002C00093434B60037943EA010CDCF800301A4396
:1002D000CCF8002002688B6893438B60CB68934313
:1002E000CB60407910280ED1886810438860C868B8
:1002F0001043C86070470279006811430A6822EA17
:1003000000000860704708430168114301607047AE
:1003100010B50C22082402EA810201F0FC01C4F2AB
:1003200001044FF00F0C51F804E00CFA02F32EEA2E
:1003300003030B510B5990401843085110BD0000A6
:100340002DE9F041CA7802F00F0CD30644BF8B7838
:100350004CEA030C09880B0621D0056800234FF0F6
:1003600001084FF00F0E002608E000BF282A08BF42
:1003700047610136082E03F104030FD008FA06F78F
:100380000F42F6D00EFA03F425EA04040CFA03F542
:10039000482A45EA0405E9D10761EAE70560B1F5B5
:1003A000807F38BFBDE8F081446800234FF4807E31
:1003B0004FF00F08002607E0282A08BF47610136E2
:1003C000082E03F1040310D00EFA06F707EA010520
:1003D000BD42F4D108FA03F5AC430CFA03F5482A00
:1003E00044EA0504E8D10761E9E74460BDE8F0812B
:1003F0004161704701617047002941F21801C4F260
:1004000002010A680CBF22EA00001043086070472E
:1004100080B500F001F880BD82B041F204000021F7
:10042000C4F202000191009150F8041C41F48031A3
:1004300040F8041C50F8041C01F4003100910199AB
:1004400001310191009919B90199B1F5A06FF1D16C
:1004500050F8041C890354BF002101210091009928
:10046000012924D10168016001680160016801600F
:10047000016821F47C110160016841F49811016068
:1004800050F8041C41F0807140F8041C50F8041C22
:100490008901FBD5016821F003010160016841F089
:1004A00002010160016801F00C010829FAD102B0D3
:1004B0007047000080B541F20000C4F202000168FC
:1004C000002241F0010101604168CFF6FF021140B6
:1004D000416001684FF6FF72CFF6F662114001608D
:1004E000016821F480210160416821F4FE0141602E
:1004F0004FF41F0181600021C162FFF789FF4EF6B2
:100500000850CEF200004FF00061016080BD000095
:1005100010B582B0012001210124FFF76DFF0220F8
:100520000621FFF7F5FE402000904FF40060ADF883
:10053000040068468DF80640FFF7B6FE02B010BD15
:10054000B0B582B008200121FFF756FF102001212D
:10055000FFF752FF072040F60044C1F60300C4F243
:10056000010401AD019020462946FFF7E9FE28204D
:100570008DF807004020ADF8040004F5806029469E
:10058000FFF7DEFE02B0B0BD40F60044C4F2010445
:10059000FFF7D6FFFFF7BCFF20460721FFF72AFF32
:1005A00020460721FFF724FFF6E70000BC050008FE
:0C05B00000000020680600005C0100084C
:04000005080001A14D
:00000001FF
